:020000040800F2
:1000000038050020010100081B1B0008AB17000881
:10001000191B000809070008EF1F00080000000076
:10002000000000000000000000000000811B00082C
:10003000D5070008000000001D1B0008051F000870
:100040001B0100081B0100081B0100081B01000820
:100050001B0100081B0100081B0100081B01000810
:100060001B0100081B0100081B0100081B01000800
:100070001B0100081B0100081B0100081B010008F0
:100080001B0100081B0100081B0100081B010008E0
:100090001B0100081B0100081B0100081B010008D0
:1000A0001B0100081B0100081B0100081B010008C0
:1000B0001B0100081B0100081B0100081B010008B0
:1000C0001B0100081B0100081B0100081B010008A0
:1000D0001B0100081B0100081B0100081B01000890
:1000E0001B0100081B0100081B010008DFF80CD0F1
:1000F00000F0B0FA00480047DD2200083805002073
:100100000648804706480047FEE7FEE7FEE7FEE7B1
:10011000FEE7FEE7FEE7FEE7FEE7FEE7671F0008F3
:10012000ED000008202A04DB203A21FA02F0002129
:10013000704721FA02F3D040C2F1200291400843F7
:1001400019467047D2B201E000F8012B491EFBD2DC
:1001500070470022F6E710B513460A4604461946D2
:10016000FFF7F0FF204610BD421C10F8011B0029CC
:10017000FBD1801A7047F0B480EA0102D40F42002C
:10018000B2EB410F02D20246084611464A0042D065
:10019000C30DDDB2C1F3C752AD1A202D35DAC1F35C
:1001A000160141F4000204B15242C5F1200602FAE0
:1001B00006F12A411044B3EBD05F23D0C4B1012D26
:1001C000A0EBC35009DCF0BC4FF0004202EAC3527E
:1001D000DBB200F5000000F0B2B9400000F1807021
:1001E00000EBC350A0F1807040EAD170490009E0F3
:1001F000490841EAC071A0EBC35000F50000400877
:1002000000EBC350F0BC00F091B96142012202EB57
:100210004101001BF6E7F0BC704781F00041AAE7FE
:1002200080F00040A7E780EA010210B502F0004329
:10023000400022D04A001FD0010E01EB1261C0F332
:100240005600C2F3560240F4000042F40002A0FB44
:10025000022000047F39140400D0401C50EA1240F0
:1002600001D44000491EC2B20C0604EBD010401C61
:100270004008802A02D003E0002010BD20F00100D9
:10028000002900DA0020184310BD30B480EA0102D2
:1002900002F0004530F0004221F0004013D090B150
:1002A000C30DD40DC2F31601C0F31600E41A41F4D5
:1002B000000140F400027D34914201D3641C00E04F
:1002C0004900002C02DA30BC002070474FF40000D7
:1002D0000023914201D3891A034340084FEA4101A8
:1002E000F7D151B1914202D14FF0004105E002D265
:1002F0004FF0010101E06FF0010103EBC45028440D
:1003000030BC00F013B9420005D0C0F3C7525242CE
:10031000914201DC0020704700EBC15070472DE98D
:10032000FE4F81EA030404F0004421F000410094F0
:100330004FF0000B23F0004350EA01045ED052EA74
:1003400003045BD0C3F30A54C1F30A552C44A4F24E
:10035000F3340194A0FB0254C1F3130141F4801162
:10036000C3F3130343F4801301FB024400FB034E69
:10037000840A970A44EA815447EA8357A4FB076832
:1003800002958D0A05FB07854FEA932C04FB0C545C
:100390002705029D4FEA065847EA1637B5EB0805D0
:1003A0006EEB070C870E920E47EA811742EA831222
:1003B000A7FB0201B6EB0B0164EB00042B0D43EA33
:1003C0000C335E1844EB1C50DA465146E7FB020141
:1003D000C5F313044FEA0B3343EA14534FEA0432D4
:1003E000019C43EA0603A4F10C040294009CCDE9AD
:1003F00000B400F0E1F803B0BDE8F08F0020014642
:10040000F9E7C10F80EAE0700844CA07962300218B
:1004100000F095B896230022114600F090B800F045
:10042000004220F00040C10DC0F3160040F400006F
:100430007F2901DA00207047962903DCC1F196017B
:10044000C84001E096398840002AF4D04042704705
:1004500020F00040C10DC0F3160040F400007F29D9
:1004600001DA00207047962903DCC1F19601C840EB
:10047000704796398840704700F0004230F00040E5
:100480000AD0C10D01F56071C0F3160042EA0151B6
:10049000C20840071143704700200146704701F031
:1004A000004330B421F0004150EA010206D00A0DA9
:1004B000A2F56072C1F31301002A02DC30BC0020F7
:1004C0007047440F44EAC104C100E01830BC00EB9F
:1004D000C25000F02BB80000002801DBC0F1004042
:1004E000002901DBC1F1004181427047002801DB96
:1004F000C0F10040002901DBC1F100418842704792
:1005000030B50B46014600202022012409E021FAE3
:1005100002F59D4205D303FA02F5491B04FA02F5E0
:100520002844151EA2F10102F1DC30BD0029A8BF4C
:100530007047401C490008BF20F00100704710B40C
:10054000B0FA80FC00FA0CF050EA010404BF10BCC1
:10055000704749B1CCF1200421FA04F411FA0CF1EE
:1005600018BF012121430843A3EB0C01CB1D4FEA27
:1005700000614FEA102042BF002010BC704700EB22
:10058000C35010440029A4BF10BC7047401C490050
:1005900008BF20F0010010BC704710B5141E73F1A5
:1005A000000408DA401C41F1000192185B411A4333
:1005B00001D120F0010010BD2DE9F04D92469B467F
:1005C00011B1B1FA81F202E0B0FA80F22032904625
:1005D00000F052F804460F4640EA0A0041EA0B01D7
:1005E00053465A46084313D0114653EA010019D026
:1005F000C8F140025046FFF795FD05460E465046AD
:100600005946424600F038F8084305D0012004E07E
:1006100020463946BDE8F08D0020054346EAE076E5
:100620002C4337430A986305E40AA0EB0800002234
:10063000FD0A44EA47540A3002D500200146E9E7A2
:10064000010510196941DDE9084500196941BDE856
:10065000F04DA2E7064C074D06E0E06840F00103CC
:1006600094E8070098471034AC42F6D3FFF742FDF8
:100670006423000884230008202A04DB203A00FABF
:1006800002F1002070479140C2F1200320FA03F3E9
:10069000194390407047000070B500F079FC174C8A
:1006A00042F21072174E61694FF40055401A144916
:1006B0000978114488421FD900F06AFC6061216901
:1006C000E069FFF709FF03D16168A06988420CD097
:1006D0002069E0616068A06100222946304600F090
:1006E00052FCBDE8704001F083BC29463046BDE8AD
:1006F0007040012200F047BC70BD000000000020E7
:100700005400002000100140FEE7000070B51A48B8
:100710000068416A194C6180406AFFF77BFE184906
:10072000FFF7B3FDFFF7A8FE164A174BFFF7F7FDDB
:10073000164A174BFFF7F3FDFFF7B1FE2061B4F93E
:10074000022000254FF08041002A01DA4D6205E0C9
:10075000104A904202DD43F2F4224A62E168FFF758
:10076000BBFE01D801206060A1682069FFF7BEFED2
:1007700000D8656070BD000064000020000000200B
:1007800000C05046F1D4C853FB210940CDCCCCCC9D
:10079000CC4C30400000484270B50D4D4FF48064A1
:1007A0002146284600F0EAFB38B9142000F02CFA64
:1007B0002146284600F0E2FB08B1002070BD21462A
:1007C000284600F0DBFB0028F9D0012070BD0000B6
:1007D000000801407047000070B50E460446002135
:1007E000084601F087F81EA001F0A4F82046FFF7A4
:1007F00016FE054601F092F81BA001F09BF8284672
:10080000FFF7FFFD2146FFF70BFD184D2946FFF7C7
:100810000AFDFFF704FE01F081F8AC424FF0000141
:1008200005DA0A2000F0DCFF00210B2004E00B2099
:1008300000F0D6FF00210C2001F05CF80CA001F0C4
:1008400079F80121002001F055F80AA001F072F8B2
:100850000EB10CA000E00CA0BDE8704001F06AB839
:100860004C6576656C3A20002E00000000002041A7
:10087000636D200050756D70207374617475733AE8
:10088000200000004F4E20004F46460010B50446A1
:100890000021084601F02EF8FCB119A001F04AF839
:1008A00018A001F047F800210B2001F023F8022CDA
:1008B00019D013A001F03EF814A001F03BF801217B
:1008C000002001F017F8012C13D00DA001F032F830
:1008D000BDE810400FA001F02DB8002211461046CF
:1008E00001F013F8DCE7002211460B2001F00DF8AF
:1008F000E2E700220121104601F007F8E8E70000D6
:100900002000000043616C69620000004578697452
:10091000000000005365742056616C75650000008E
:100920002DE9F0410C460E4605460021904608464A
:1009300000F0E0FF002D57D032A000F0FBFF32A006
:1009400000F0F8FF2046FFF76AFD074600F0E6FFDB
:100950003846FFF756FD2146FFF762FC2D4C214635
:10096000FFF761FCFFF75BFD07462BA000F0E2FFFD
:10097000384600F0D3FFA64206DA00210D2000F031
:10098000B9FF26A000F0D6FF46460121002000F066
:10099000B1FF012D2ED01BA000F0CCFF20A000F055
:1009A000C9FF4046FFF73BFD054600F0B7FF28466C
:1009B000FFF727FD4146FFF733FC2146FFF733FCE5
:1009C000FFF72DFD054614A000F0B4FF284600F007
:1009D000A5FFA64214DA01210D2000F08BFFBDE82F
:1009E000F0410EA000F0A6BF00221146104600F014
:1009F0008CFFA4E700220121104600F086FFCDE71E
:100A0000BDE8F0812000000055204C6576656C3A09
:100A100020000000000020412E00000020200000E7
:100A200044204C6576656C3A2000000006490020A1
:100A3000C8610648016941F004010161016941F0A2
:100A400040010161704700001801002000200240B1
:100A5000064A0021D16106490A6942F002020A6190
:100A60004861086940F040000861704718010020A3
:100A700000200240044B0022DA61044A136943F06B
:100A8000010313610180704718010020002002401B
:100A900014480022C168CB06134904D5CA6942F044
:100AA0000202CA611022C3685B0705D5CB6943F017
:100AB0000103CB6142F00402C369DB0707D0CB69B5
:100AC00043F00403CB61C16921F00101C161A2F5CA
:100AD0008071013901D0C2607047C16921F0010104
:100AE000C1617047002002401801002070B5054622
:100AF00000F04EFA0646114C09E0681C07D025B1FB
:100B000000F046FA801BA84201D9032070BDE068BE
:100B1000C007F2D1E068800601D52020E060E068DF
:100B2000C00605D4E069C00702D1E068400703D5DC
:100B3000FFF7AEFF012070BD002070BD0020024015
:100B400002680A600A68521C02D0001D091DF7E7FE
:100B500000200860704700002DE9F8430646002594
:100B60000F462C464FF6FF7057F82410814201D0F3
:100B7000641CF9E700F0FEF8304600F02DF88046DE
:100B800006EB840000F028F8124902460020C1F864
:100B900008800860A2EB0800012202EB9020C860E8
:100BA00069460C4800F042F840B90DE057F825209E
:100BB00000233146022000F09DF818B100F08AF8B9
:100BC000BDE8F8836D1C361DA542EFDB00F088F808
:100BD0000020F5E7040100200A4B10B500215A045B
:100BE00003EB8124844207D902EB8124844203D899
:100BF000880200F1006010BD491C8029F0DB4FF035
:100C0000FF3010BD0004000870B5044600F0C0F9C4
:100C10000546601C02D004480078044400F0B8F98E
:100C2000401BA042FAD370BD540000202DE9F047CC
:100C3000054626480F460126017E01290FD00121D5
:100C4000814601762868DFF888804CF2503402280B
:100C500008D0A2462046FFF749FFA8B131E00220A4
:100C6000BDE8F0872046FFF741FF08BB0120FFF7F2
:100C7000DDFE2046FFF73AFFD8F81010064621F0B7
:100C80000401C8F810101CE04FF0FF303860AC6869
:100C900011E02046FFF7DCFE5046FFF727FFD8F8AB
:100CA0001010060021F00201C8F8101001D03C60BD
:100CB00007E004F58064D5E9020100EB8120A04241
:100CC000E7D8002189F818103046C9E7180100203C
:100CD000002002400148C069704700001801002050
:100CE0000348016941F08001016100207047000064
:100CF000002002402DE9F05F07461C48884600248A
:100D0000017E15461E46012909D001218146017642
:100D10004CF2503A5046FFF7E9FE18B122E00220AB
:100D2000BDE8F09F012F02D0022F00D00427D34648
:100D3000DFF83CA0220128463146FFF7F3F981B2E3
:100D400008EB4400FFF796FE5846FFF7CFFEDAF8AF
:100D5000102022F00102CAF8102018B9641CE4B275
:100D6000BC42E7D3002289F81820D9E718010020F7
:100D700000200240064900200A69120607D5054AEC
:100D80004A60054A4A600969090600D50120704792
:100D90000020024023016745AB89EFCD2DE9F84FD4
:100DA000DFF8B891002409F1040A0AF1040B234684
:100DB0000F270BF1040EC9E00125A5402A40AA42E5
:100DC0007DD1674ED1F804C0ACEB0608B44532D0F3
:100DD00014DCBCF1030F3AD009DCBCF1000F2AD0BF
:100DE000BCF1010F1CD0BCF1020F31D11DE0BCF1F0
:100DF000110F17D0BCF1120F2AD119E0B8F5881FD6
:100E000019D006DCB8F5803F15D0B8F5801F1FD18A
:100E100011E0B8F5001F0ED0B8F5041F18D10AE094
:100E2000CB6815E0CB681B1D12E0CB6808330FE0E0
:100E3000CB680C330CE08B682BB1012B4FF008030F
:100E400003D0456104E0042302E0056100E00023D3
:100E5000FF2A01D8064601E000F104064FEA8405A6
:100E600001D9A5F12005D6F8008007FA05FC28EA8B
:100E70000C0803FA05F548EA0508C6F800804D6835
:100E8000ED0062D5374DAE6946F00106AE61AD6941
:100E900024F0030605F001050095334D06EB050C23
:100EA000DCF80850A607360F07FA06F825EA080509
:100EB000DFF8B880404503D14FF0000817E044E068
:100EC000DFF8AC80404502D14FF001080FE0DFF8B9
:100ED000A480404502D14FF0020808E0DFF8988076
:100EE000404502D14FF0030801E04FF0040808FA32
:100EF00006F848EA0508CCF808804D68D9F8006083
:100F0000ED034D4601D5164300E096432E604D6833
:100F1000DAF80060AD03554601D5164300E096436C
:100F20002E604D68DBF80060ED025D4601D516438A
:100F300000E096432E604D68DEF80060AD02754615
:100F400001D5164300E096432E60641C0D682A46C6
:100F5000E5407FF431AFBDE8F88F000000040140A8
:100F60000000111000100240000001400008014084
:100F7000000C01400010014000140140806808404E
:100F800000D0012070470AB1016170470904FBE7F6
:100F900001488068704700005400002002488168C2
:100FA000027811448160704754000020074810B552
:100FB000016841F010010160032000F067F8002093
:100FC00000F006F800F024F8002010BD00200240D8
:100FD00070B50D4D04464FF47A712878B1FBF0F0EE
:100FE0000A490968B1FBF0F000F0BEFA48B9102CCC
:100FF00007D200222146501E00F028F800206C6025
:1010000070BD012070BD0000540000206000002071
:101010000C4808B5816941F001018161816901F0E5
:1010200001010091C16941F08051C161C06900F0C6
:10103000805000900448416821F0E06141F0007167
:10104000416008BD0010024000000140F0B40E4BAA
:101050001B680C46C3F30223C3F10705042D00D916
:101060000425191D072901D2002300E0DB1E0126FB
:1010700006FA05F1491E214099409E40761E164011
:101080003143F0BC00F0EABF0CED00E0064900F08F
:10109000070208684FF6FF03184040EA0220034A9F
:1010A00010430860704700000CED00E00000FA05F6
:1010B0002DE9F0470F46050061D0434E306800F03F
:1010C0000700B84209D2306820F00700384330608A
:1010D000306800F00700B84251D128683B4C8107C6
:1010E00012D5400703D5606840F4E060606028785E
:1010F000000703D5606840F4605060606068A968CC
:1011000020F0F000084360602878C00728D06868A5
:10111000012810D02168022810D0890700292EDA72
:10112000616821F0030101436160FFF731FF8046F0
:1011300041F288390DE021688903EFE78901EDE785
:10114000FFF726FFA0EB0801494502D90320BDE8BF
:10115000F0876068696800F00C00B0EB810FEFD198
:10116000306800F00700B8420BD9306820F0070063
:1011700038433060306800F00700B84201D00120E9
:10118000E5E72878400705D56068E96820F4E06065
:10119000084360602878000706D56068296920F454
:1011A000605040EAC100606000F018F86168084AC9
:1011B000C1F30311515CC840064908600648006845
:1011C000FFF706FF0020C2E70020024000100240A7
:1011D00054230008600000205800002012A185B0B0
:1011E0000FC98DE80F0014A0144A006804905168DC
:1011F000134801F00C03042B10D0082B0ED1C1F3BF
:101200008343C9031DF803000AD5516804AAC1F33A
:101210004041515C0A4A5043B0FBF1F005B07047C1
:1012200008494843FAE700000203040506070809D5
:101230000A0B0C0D0E0F10100102000000100240EE
:1012400000127A0000093D002DE9F84F040070D02B
:101250002078C04DC00749D06868C0F381000128DC
:1012600007D06868C0F38100022809D16868C0030C
:1012700006D52868800339D560680028E7D035E0B6
:101280006068B0F5803F0BD010B1B0F5A02F11D041
:10129000286820F480302860286820F4802002E04C
:1012A000286840F480302860606890B1FFF770FED5
:1012B00006460AE0286840F480202860F0E700BF76
:1012C000FFF766FE801B642873D828688003F7D573
:1012D0000CE0FFF75DFE064605E000BFFFF758FE95
:1012E000801B6428F0D828688003F7D420789A4EB1
:1012F00080074FF001094FF0000839D5686810F0F9
:101300000C0F07D06868C0F38100022809D1686813
:10131000C00306D42868800714D52069012808D1A5
:1013200010E02069B0B1C6F80090FFF731FE074623
:1013300005E00AE1FFF72CFEC01B0228C4D828688C
:101340008007F7D52868616920F0F80040EAC100FD
:1013500028600DE0C6F80080FFF71AFE074604E09B
:10136000FFF716FEC01B022823D828688007F7D491
:10137000207800072CD57948A169D9B1C0F8009030
:10138000FFF706FE074604E0FFF702FEC01B022837
:101390000FD8686A8007F7D571484FF4FA51006892
:1013A000B0FBF1F0009000BF0098411E0091FAD20E
:1013B0000EE080E0C0F80080FFF7EAFD074604E099
:1013C000FFF7E6FDC01B022875D8686A8007F7D4CE
:1013D0002078400760D5E8690027C00008D4E86994
:1013E00040F08050E861E869012700F080500090EB
:1013F0005C480168C90513D40168834641F48071D3
:101400000160FFF7C5FD824606E000BFFFF7C0FDA3
:10141000A0EB0A0064284ED8DBF80000C005F5D523
:10142000E06801280AD008B1052813D0286A20F006
:1014300001002862286A20F0040002E0286A40F0D7
:1014400001002862E06841F2883B98B1FFF7A0FDF7
:1014500082460BE0286A40F004002862EEE700BFF5
:10146000FFF796FDA0EB0A0159455AD8286A800774
:10147000F6D50CE0FFF78CFD824605E0FFF788FD0E
:10148000A0EB0A0159454CD8286A8007F6D41FB151
:10149000E86920F08050E861E06988B36968C1F3C9
:1014A0008101022944D00228C6F8608004D0FFF7E9
:1014B0006FFD044638E034E0FFF76AFD074604E0BC
:1014C000FFF766FDC01B02282BD828688001F7D4DF
:1014D000206AB0F5803F05D16868A16820F400302B
:1014E00008436860D4E908010843696821F474116D
:1014F00008436860C6F86090FFF74AFD044606E0BE
:1015000025E000BFFFF744FD001B022809D828682A
:101510008001F7D51BE000BFFFF73AFD001B022852
:1015200002D90320BDE8F88F28688001F4D40EE0CA
:101530000128F7D06868226A00F48031914204D112
:10154000616A00F47010884201D00120EAE70020AF
:10155000E8E70000001002400000424280044242DE
:10156000600000200070004010B5401EB0F1807F88
:1015700001D3012010BD4FF0E02460610F216017FE
:1015800000F06CFD0020A06107202061002010BD4C
:1015900070B590F83C20012A26D0012480F83C4008
:1015A000022280F83D2003685A689D6822F0700688
:1015B0000A6832435A600D4B02689A4208D0B2F171
:1015C000804F05D00A4B9A4202D00A4B9A4204D16E
:1015D000496825F080031943916080F83D4000215F
:1015E00080F83C10084670BD022070BD002C014000
:1015F00000040040000800402DE9F0410D460400C1
:1016000003D094F83D0018B108E00120BDE8F08156
:10161000002084F83C00204600F040F8022084F8C6
:101620003D002068816844F2070291438160211DDA
:10163000206800F099FC226890689169166A2B680E
:10164000AF69034340F20330814341EA0721A868B0
:10165000EF6908434FF6FC418843E96840EA0720F8
:10166000014328692F6A000140EA0730084369688E
:101670006D6926F0220646EA051529439360226823
:10168000906154F8460B0162012004F81F09E075CF
:101690002076E0762077A0750020B7E700B585B00A
:1016A00000210091019102910391026818491948A3
:1016B000B2F1804F19D0184B9A4214D1CA6942F046
:1016C0000202CA61CA6902F0020204928A6942F007
:1016D00004028A61896901F004010491C02100912A
:1016E0006946FFF75BFB05B000BDCA6942F0010225
:1016F000CA61CA6902F0010204928A6942F00402D6
:101700008A61896901F0040104910321E7E700007F
:1017100000100240000801400004004070B590F83D
:101720003E60044690F83F5090F8423090F84320D5
:10173000022021B104290ED0012E1BD114E0012E6C
:1017400018D1012B16D184F83E0084F84200012202
:101750000021206820E0012D0CD1012A0AD184F853
:101760003F0084F8430014E0012D03D1012B01D187
:10177000012A01D0012070BD84F83E0084F83F00AA
:1017800084F8420084F8430001220021206800F020
:1017900021FC01220421206800F01CFC2068016863
:1017A00041F001010160002070BDFEE710B500F0BE
:1017B0001FF8332000F068FD322000F065FD28207E
:1017C00000F062FD012000F05FFD0C2000F05CFDE8
:1017D000BDE81040062000F057BD012000F054BDC8
:1017E00010B500F087F8BDE81040202000F062BD81
:1017F0002DE9F04385B0334800240294816941F01B
:1018000004018161816901F004010491816941F061
:1018100008018161816901F008010491816941F049
:10182000100181618069012500F0100004904FF4DF
:101830000070CDE90005DFF8909003266946039615
:101840004846FFF7ABFAE802CDE90005CDE90246CC
:1018500069464846FFF7A2FAAF0300970396DFF800
:101860006C80CDE9015469464046FFF797FA0022A3
:1018700039464046FFF787FB2803CDE90005CDE94F
:10188000024669464846FFF789FA6803CDE9000534
:10189000CDE9024669464846FFF780FA009703966D
:1018A000CDE9015469464846FFF778FAE803CDE9E7
:1018B0000005CDE9024669464846FFF76FFA05B0D4
:1018C000BDE8F08300100240000C01400010014010
:1018D00070B50D4600F00700402141EAC00000F05D
:1018E000D3FC0024285D00F0E5FC641CE4B2082C65
:1018F000F8D370BD31B14030C0B240F0800000BFBD
:1019000000F0C2BC40F08000FAE710B51446FFF7C3
:10191000F1FF2046BDE8104000F0CCBC0EB50246F9
:1019200003A1684600F086FB684600F003F80EBD90
:101930002564000070B50546002404E0285D00F031
:10194000B9FC641CE4B22846FEF70EFCA042F5D8B0
:1019500070BD00002DE9F04786B0002435480094A2
:10196000019402940394816941F0100181618169BD
:1019700001F010010491816941F0200181618169C8
:1019800001F020010491816941F0040181618169C4
:1019900001F004010491816941F0080181618069CD
:1019A000012200F00800DFF89090550304902946CA
:1019B0004846FFF7E8FAAF00002239464846FFF7ED
:1019C000E2FADFF878A000224FF220015046FFF73C
:1019D000DAFA0095022601250396CDE901546946FD
:1019E0004846FFF7DBF92020CDE90005DFF85080FD
:1019F000CDE9024669464046FFF7D0F900970396C5
:101A0000CDE9015469464846FFF7C8F94FF47040E4
:101A1000CDE90005CDE9024669465046FFF7BEF91B
:101A2000A8028DE8310069464046FFF7B7F906B0D5
:101A3000BDE8F0870010024000100140000C01409A
:101A40000008014010B58CB024216846FEF781FBE8
:101A50000024154809944FF080410A94C0E900140D
:101A60004FF6FF71C0E90241046184610320CDE9B2
:101A700000040120CDE902040494CDE90540079457
:101A8000694609480894FFF7B7FD08B172B6FEE74A
:101A9000099409A904480A94FFF77AFD002801D0A7
:101AA00072B6FEE70CB010BD6400002010B58CB01B
:101AB00024216846FEF74DFB00241648099414497A
:101AC0000A94C0E900144FF6FF71C0E902410461B5
:101AD00084610320CDE900040120CDE902040494CF
:101AE000CDE90540079469460A480894FFF784FD4C
:101AF00008B172B6FEE7099409A906480A94FFF7EF
:101B000047FD002801D072B6FEE70CB010BD000002
:101B100000040040AC000020FEE7FEE77047000034
:101B200004484168044809B1012200E00022202154
:101B3000FFF729BA000000200008014070B50D49E8
:101B40000D48FEF7FDFF0B4C2068FEF763FC6FF0BD
:101B500001063146FEF7D7FB084DA8606068FEF726
:101B600059FC3146FEF7CFFBE86020896880E068C9
:101B7000686070BDF400002000FC01080000002037
:101B8000704700002DE9F84FFEF706FE00287DD0D3
:101B900000F034FBFFF721FE0025ADF80050B84CF3
:101BA0002560FFF7F5F9AB46DFF8D882DFF8D89269
:101BB000DFF8D8A2064608274EF66025D9F80000BF
:101BC0004C46416AAAF80010FFF7E2F9811B98F829
:101BD00000002844814256D82068416A890703D111
:101BE000406A8010ADF80000BDF80000C0B2FEF7FA
:101BF0004DFEBAF900105046082902DDA04AC2F88D
:101C000000B0B0F90000002801DA9D480760FEF737
:101C1000C3FD0028D2D000F0F1FABDF8000070BB7F
:101C2000FFF7DBFD00210120FFF764FE98A0FFF71E
:101C300081FEFFF7ADF906464FEA0807FFF7A8F95E
:101C4000811B3878284481421DD8FEF7A5FD002865
:101C5000F4D000F0D3FA00210120FFF74BFE90A052
:101C6000FFF768FE4FF08041C1F824B04FF47A705E
:101C7000FEF7CAFFFF20ADF80000FFF7AEFDBDF88C
:101C80000000022808D1FFF7A8FD00E080E000F086
:101C9000AFF9FF20ADF80000BDF80000012877D1B2
:101CA000FFF79BFDADF800B0DFF8D491C9F800B0A4
:101CB000FFF76EF907462068406A5646AAF800000A
:101CC000FFF766F998F80010C01B29448842DAD85B
:101CD0002068416A890703D1406A8010ADF800008E
:101CE000BDF80000D6E90212C0B2FEF719FEB6F93F
:101CF0000000042801DDC9F800B0B6F90000002892
:101D000002DA0421C9F800104FF480616948FFF736
:101D100035F90028CFD100260A20FEF775FF4FF4D1
:101D200080616448FFF72AF998B300BF00F066FAB3
:101D3000BDF8000070B3BDF80000012828D10321D0
:101D40005646DAF80C00FEF7DEFAFEF781FBC9F81A
:101D50000000FFF71DF90746FFF71AF9C11B98F8B5
:101D60000000284481428ED85349F06888420ADC3A
:101D7000B168FEF7B1FB06D8BDF80000D6E9021243
:101D8000C0B2FEF7CDFD2068416A890755D05CE0FE
:101D900073E000E00FE0761CB6B2642EBCD3FFF710
:101DA0001CFDFEF7F9FC002885D0FF20ADF80000EF
:101DB00000F01EF9BAE703215746DAF80800FEF7EB
:101DC000A2FAFEF745FB2E490860FFF7E1F8064648
:101DD000FFF7DEF8811B98F8000028448142C2D842
:101DE000DFF8D490B968494507DCFA684A4504DC55
:101DF000BDF80000C0B2FEF793FD2068416A890774
:101E000001D0B86807E0406AFEF704FB6FF00201FA
:101E1000FEF779FAB860484502DD194AC2F800B009
:101E2000F968FEF759FB03D215494FF4C8700860F2
:101E3000FEF7B2FC0028CBD019E0406AFEF7EAFAC0
:101E40006FF00201FEF75FFAF060D6E90210FEF7CC
:101E50004DFB07D20321B068FEF755FAFEF7F8FAFA
:101E6000C9F80000FEF798FC00283FF475AF00F0B9
:101E7000C5F9FF20ADF8000014E7BDE8F88F0000B9
:101E80002404004054000020AC000020000000208A
:101E900043616C6962726174696E672E2E2E000058
:101EA000202043616C696272617465642120202086
:101EB00000000000000801400000484210B5FFF794
:101EC0008CFC00210846FFF715FD09A0FFF732FD45
:101ED00001210520FFF70EFD07A0FFF72BFD40F6BF
:101EE000B830FEF791FEBDE81040FFF776BC000069
:101EF0004150504C49454400454C454354524F4E87
:101F000049435300FFF74AB830B58FB028216846DF
:101F1000FEF71FF914210AA8FEF71BF90121080496
:101F2000CDE900100024029402250491CDE9075068
:101F30004FF4E01009906846FFF786F908B172B6D1
:101F4000FEE70F20CDE90A054FF48060CDE90C4093
:101F500002210AA80E94FFF7ABF8002801D072B650
:101F6000FEE70FB030BD7047F0B50268164B174C56
:101F7000174D4FF08047984205D0B84203D0A04299
:101F800001D0A84203D122F070064A683243984239
:101F900005D0B84203D0A04201D0A84203D122F418
:101FA0004074CA6822434C6922F0800222430260D6
:101FB0008A68C2620A688262984201D10969016333
:101FC00001214161F0BD0000002C014000040040EF
:101FD0000008004010B501F01F030121046A994078
:101FE0008C430462016A9A401143016210BDFEE70E
:101FF00070B50E4C0221A068FEF785F9FEF728FAAD
:1020000004F1280502212860E068FEF77CF9FEF75C
:102010001FFA6860B4F90200A8606068E8602946A9
:10202000BDE870400248FEF797BD000000000020A8
:1020300000FC01080FB4084B10B504A902AA0398CC
:1020400000F02CF8044602A9002000F0D1F8204648
:1020500010BC5DF814FB0000F12100080907090E0F
:10206000002804DB00F1E02080F80014704700F045
:102070000F0000F1E02080F8141D704702E008C84E
:10208000121F08C1002AFAD170477047002001E0F2
:1020900001C1121F002AFBD1704700002DE9FF4F3C
:1020A00089B09B460446002506E025280BD05A46F9
:1020B0000B999047641C6D1C20780028F5D10DB059
:1020C0002846BDE8F08F0027B8460122474900E0C6
:1020D000074314F8013F203B02FA03F00842F7D10E
:1020E00020782E2819D114F8010F47F004072A2868
:1020F0000ED06FF02F022078A0F1300109290CD802
:1021000008EB880102EB410100EB0108641CF2E7D7
:102110000A98641C50F8048B0A9020780028CED0CE
:10212000642808D0692806D075281ED05A460B9915
:1021300090476D1C58E00A994FF00A0901C90A91AD
:10214000002802DA40422D2102E0390504D52B2176
:102150008DF82010012103E0F90704D02021F7E7D2
:102160008A4608AE0DE00021FAE70A994FF00A0905
:1021700001C90A91F7E74946FEF7C2F9303106F87E
:10218000011D0028F7D1ADEB060000F1200978070A
:1021900001D44FF00108C84502DDA8EB090000E0BA
:1021A00000208046002706E008A85A46C05D0B992B
:1021B00090476D1C7F1C5745F6DB04E030205A46E3
:1021C0000B9990476D1CB8F10001A8F10108F5DCEE
:1021D00005E016F8010B5A460B9990476D1CB9F1B2
:1021E0000001A9F10109F4DC641C65E7092801007C
:1021F0000A68531C0B6010707047000070B5012214
:10220000074DD40321462846FEF7BDFE6420FEF7A5
:10221000FBFC21462846BDE870400022FEF7B3BE15
:10222000001001402DE9F041154D0F468046002475
:1022300005F108060EE000BF28FA04F0C00735F8E3
:10224000141056F8240018D05FF00102FEF79BFE30
:10225000641CE4B2BC42EFD301220A4DD4022146F1
:102260002846FEF790FE0120FEF7CEFC21462846C8
:10227000BDE8F0410022FEF786BE0022E6E700003E
:102280003C000020000C014010B5044600224FF431
:1022900000710748FEF777FE20090421FFF7C2FF0F
:1022A00004F00F00BDE810400421FFF7BBBF0000A1
:1022B000000C014010B50446012251020648FEF709
:1022C00062FE20090421FFF7ADFF04F00F00BDE816
:1022D00010400421FFF7A6BF000C0140FEF766FE88
:1022E000FFF712FEFFF736FBFFF7ACFBFFF7DEFB55
:1022F00004211548FFF712FA134804214838FFF764
:102300000DFAFFF753FA11490020FFF7E1FAFFF742
:10231000D5FDFFF713FC0D4C203CB4F902004FF043
:1023200080414862FFF76AFF094D2069A84202DC3C
:102330002179FEF751FAFEF7AFF9FFF723FCFEF71C
:10234000E5F9FFF7EDFBF0E7AC00002020000020EE
:1023500000004842000000000000000001020304E9
:10236000060708098423000800000020640000001C
:102370007C200008E823000864000020D40400004A
:102380008C20000800000000010000000000803FD9
:10239000000000400000404000000000000000007D
:1023A000000000000004061F0604000001000000F9
:1023B000020000000300000004000000FFFF000016
:1023C0000010002000400080000C0140000C014083
:1023D000000C0140000C0140010000001000000052
:0823E000000000000024F400DD
:04000005080000ED02
:00000001FF
